{
  "_format": "hh-sol-artifact-1",
  "contractName": "Escrow",
  "sourceName": "contracts/Escrow.sol",
  "abi": [
    {
      "inputs": [],
      "stateMutability": "payable",
      "type": "constructor"
    },
    {
      "anonymous": false,
      "inputs": [
        {
          "indexed": false,
          "internalType": "uint256",
          "name": "when",
          "type": "uint256"
        }
      ],
      "name": "Closed",
      "type": "event"
    },
    {
      "anonymous": false,
      "inputs": [
        {
          "indexed": false,
          "internalType": "uint256",
          "name": "when",
          "type": "uint256"
        },
        {
          "indexed": false,
          "internalType": "address",
          "name": "by",
          "type": "address"
        }
      ],
      "name": "ConfirmPurchase",
      "type": "event"
    },
    {
      "anonymous": false,
      "inputs": [
        {
          "indexed": false,
          "internalType": "uint256",
          "name": "when",
          "type": "uint256"
        },
        {
          "indexed": false,
          "internalType": "address",
          "name": "by",
          "type": "address"
        }
      ],
      "name": "ConfirmReceived",
      "type": "event"
    },
    {
      "anonymous": false,
      "inputs": [
        {
          "indexed": false,
          "internalType": "uint256",
          "name": "when",
          "type": "uint256"
        }
      ],
      "name": "End",
      "type": "event"
    },
    {
      "anonymous": false,
      "inputs": [
        {
          "indexed": false,
          "internalType": "uint256",
          "name": "when",
          "type": "uint256"
        }
      ],
      "name": "Restarted",
      "type": "event"
    },
    {
      "anonymous": false,
      "inputs": [
        {
          "indexed": false,
          "internalType": "uint256",
          "name": "when",
          "type": "uint256"
        }
      ],
      "name": "SellerRefundBuyer",
      "type": "event"
    },
    {
      "anonymous": false,
      "inputs": [
        {
          "indexed": false,
          "internalType": "uint256",
          "name": "when",
          "type": "uint256"
        }
      ],
      "name": "SellerRefunded",
      "type": "event"
    },
    {
      "inputs": [],
      "name": "buyer",
      "outputs": [
        {
          "internalType": "address payable",
          "name": "",
          "type": "address"
        }
      ],
      "stateMutability": "view",
      "type": "function"
    },
    {
      "inputs": [],
      "name": "close",
      "outputs": [],
      "stateMutability": "nonpayable",
      "type": "function"
    },
    {
      "inputs": [],
      "name": "confirmPurchase",
      "outputs": [],
      "stateMutability": "payable",
      "type": "function"
    },
    {
      "inputs": [],
      "name": "confirmReceived",
      "outputs": [],
      "stateMutability": "nonpayable",
      "type": "function"
    },
    {
      "inputs": [],
      "name": "end",
      "outputs": [],
      "stateMutability": "nonpayable",
      "type": "function"
    },
    {
      "inputs": [],
      "name": "listPreviousBuyers",
      "outputs": [
        {
          "internalType": "address[]",
          "name": "",
          "type": "address[]"
        }
      ],
      "stateMutability": "view",
      "type": "function"
    },
    {
      "inputs": [],
      "name": "price",
      "outputs": [
        {
          "internalType": "uint256",
          "name": "",
          "type": "uint256"
        }
      ],
      "stateMutability": "view",
      "type": "function"
    },
    {
      "inputs": [],
      "name": "refundBuyer",
      "outputs": [],
      "stateMutability": "nonpayable",
      "type": "function"
    },
    {
      "inputs": [],
      "name": "refundSeller",
      "outputs": [],
      "stateMutability": "nonpayable",
      "type": "function"
    },
    {
      "inputs": [],
      "name": "restartContract",
      "outputs": [],
      "stateMutability": "payable",
      "type": "function"
    },
    {
      "inputs": [],
      "name": "seller",
      "outputs": [
        {
          "internalType": "address payable",
          "name": "",
          "type": "address"
        }
      ],
      "stateMutability": "view",
      "type": "function"
    },
    {
      "inputs": [],
      "name": "state",
      "outputs": [
        {
          "internalType": "enum Escrow.State",
          "name": "",
          "type": "uint8"
        }
      ],
      "stateMutability": "view",
      "type": "function"
    },
    {
      "inputs": [],
      "name": "totalSales",
      "outputs": [
        {
          "internalType": "uint256",
          "name": "count",
          "type": "uint256"
        }
      ],
      "stateMutability": "view",
      "type": "function"
    }
  ],
  "bytecode": "0x608060405233600160006101000a81548173ffffffffffffffffffffffffffffffffffffffff021916908373ffffffffffffffffffffffffffffffffffffffff1602179055506002346200005491906200010f565b6000819055503460005460026200006c919062000147565b14620000af576040517f08c379a0000000000000000000000000000000000000000000000000000000008152600401620000a690620000dc565b60405180910390fd5b62000239565b6000620000c4601583620000fe565b9150620000d18262000210565b602082019050919050565b60006020820190508181036000830152620000f781620000b5565b9050919050565b600082825260208201905092915050565b60006200011c82620001a8565b91506200012983620001a8565b9250826200013c576200013b620001e1565b5b828204905092915050565b60006200015482620001a8565b91506200016183620001a8565b9250817fffffffffffffffffffffffffffffffffffffffffffffffffffffffffffffffff04831182151516156200019d576200019c620001b2565b5b828202905092915050565b6000819050919050565b7f4e487b7100000000000000000000000000000000000000000000000000000000600052601160045260246000fd5b7f4e487b7100000000000000000000000000000000000000000000000000000000600052601260045260246000fd5b7f56616c75652068617320746f206265206576656e2e0000000000000000000000600082015250565b6119c480620002496000396000f3fe6080604052600436106100c25760003560e01c8063a035b1fe1161007f578063d696069711610059578063d6960697146101ed578063e8a61cc8146101f7578063efbe1c1c1461020e578063f74c124b14610225576100c2565b8063a035b1fe14610180578063c19d93fb146101ab578063c7981b1b146101d6576100c2565b806308551a53146100c757806330a52d5b146100f257806343d726d6146100fc5780636605ff66146101135780637150d8ae1461013e57806373fac6f014610169575b600080fd5b3480156100d357600080fd5b506100dc610250565b6040516100e991906115a0565b60405180910390f35b6100fa610276565b005b34801561010857600080fd5b50610111610534565b005b34801561011f57600080fd5b5061012861077b565b6040516101359190611698565b60405180910390f35b34801561014a57600080fd5b50610153610788565b60405161016091906115a0565b60405180910390f35b34801561017557600080fd5b5061017e6107ae565b005b34801561018c57600080fd5b50610195610a1b565b6040516101a29190611698565b60405180910390f35b3480156101b757600080fd5b506101c0610a21565b6040516101cd91906115dd565b60405180910390f35b3480156101e257600080fd5b506101eb610a34565b005b6101f5610d0d565b005b34801561020357600080fd5b5061020c610f6d565b005b34801561021a57600080fd5b5061022361118d565b005b34801561023157600080fd5b5061023a6113a2565b60405161024791906115bb565b60405180910390f35b600160009054906101000a900473ffffffffffffffffffffffffffffffffffffffff1681565b600160009054906101000a900473ffffffffffffffffffffffffffffffffffffffff1673ffffffffffffffffffffffffffffffffffffffff163373ffffffffffffffffffffffffffffffffffffffff1614610306576040517f08c379a00000000000000000000000000000000000000000000000000000000081526004016102fd90611638565b60405180910390fd5b60036004811115610340577f4e487b7100000000000000000000000000000000000000000000000000000000600052602160045260246000fd5b600460009054906101000a900460ff166004811115610388577f4e487b7100000000000000000000000000000000000000000000000000000000600052602160045260246000fd5b148061041257506004808111156103c8577f4e487b7100000000000000000000000000000000000000000000000000000000600052602160045260246000fd5b600460009054906101000a900460ff166004811115610410577f4e487b7100000000000000000000000000000000000000000000000000000000600052602160045260246000fd5b145b15610532573460005460026104279190611726565b14610467576040517f08c379a000000000000000000000000000000000000000000000000000000000815260040161045e90611678565b60405180910390fd5b6000600460006101000a81548160ff021916908360048111156104b3577f4e487b7100000000000000000000000000000000000000000000000000000000600052602160045260246000fd5b02179055506000600260006101000a81548173ffffffffffffffffffffffffffffffffffffffff021916908373ffffffffffffffffffffffffffffffffffffffff1602179055507f6aaf3aad1d1cbaace364e7580ac08458b9f1ae89f2a13c03fc6bc1c85e9690c8426040516105299190611698565b60405180910390a15b565b600160009054906101000a900473ffffffffffffffffffffffffffffffffffffffff1673ffffffffffffffffffffffffffffffffffffffff163373ffffffffffffffffffffffffffffffffffffffff16146105c4576040517f08c379a00000000000000000000000000000000000000000000000000000000081526004016105bb90611638565b60405180910390fd5b60008060048111156105ff577f4e487b7100000000000000000000000000000000000000000000000000000000600052602160045260246000fd5b600460009054906101000a900460ff166004811115610647577f4e487b7100000000000000000000000000000000000000000000000000000000600052602160045260246000fd5b14610687576040517f08c379a000000000000000000000000000000000000000000000000000000000815260040161067e90611618565b60405180910390fd5b6003600460006101000a81548160ff021916908360048111156106d3577f4e487b7100000000000000000000000000000000000000000000000000000000600052602160045260246000fd5b0217905550600160009054906101000a900473ffffffffffffffffffffffffffffffffffffffff1673ffffffffffffffffffffffffffffffffffffffff166108fc479081150290604051600060405180830381858888f19350505050158015610740573d6000803e3d6000fd5b507f6cc09e7b5c3e49861ebe8f6867e1618fbfc14c8d0e968fde37c4243ca02a6f83426040516107709190611698565b60405180910390a150565b6000600380549050905090565b600260009054906101000a900473ffffffffffffffffffffffffffffffffffffffff1681565b600260009054906101000a900473ffffffffffffffffffffffffffffffffffffffff1673ffffffffffffffffffffffffffffffffffffffff163373ffffffffffffffffffffffffffffffffffffffff161461083e576040517f08c379a0000000000000000000000000000000000000000000000000000000008152600401610835906115f8565b60405180910390fd5b6001806004811115610879577f4e487b7100000000000000000000000000000000000000000000000000000000600052602160045260246000fd5b600460009054906101000a900460ff1660048111156108c1577f4e487b7100000000000000000000000000000000000000000000000000000000600052602160045260246000fd5b14610901576040517f08c379a00000000000000000000000000000000000000000000000000000000081526004016108f890611618565b60405180910390fd5b6002600460006101000a81548160ff0219169083600481111561094d577f4e487b7100000000000000000000000000000000000000000000000000000000600052602160045260246000fd5b0217905550600260009054906101000a900473ffffffffffffffffffffffffffffffffffffffff1673ffffffffffffffffffffffffffffffffffffffff166108fc6000549081150290604051600060405180830381858888f193505050501580156109bc573d6000803e3d6000fd5b507fb96dd9bac389907c79dfc675d3c2dedf6867a8bad8c1b98568cafc4b42751b0942600260009054906101000a900473ffffffffffffffffffffffffffffffffffffffff16604051610a109291906116b3565b60405180910390a150565b60005481565b600460009054906101000a900460ff1681565b600160009054906101000a900473ffffffffffffffffffffffffffffffffffffffff1673ffffffffffffffffffffffffffffffffffffffff163373ffffffffffffffffffffffffffffffffffffffff1614610ac4576040517f08c379a0000000000000000000000000000000000000000000000000000000008152600401610abb90611638565b60405180910390fd5b6002806004811115610aff577f4e487b7100000000000000000000000000000000000000000000000000000000600052602160045260246000fd5b600460009054906101000a900460ff166004811115610b47577f4e487b7100000000000000000000000000000000000000000000000000000000600052602160045260246000fd5b14610b87576040517f08c379a0000000000000000000000000000000000000000000000000000000008152600401610b7e90611618565b60405180910390fd5b60048060006101000a81548160ff02191690836004811115610bd2577f4e487b7100000000000000000000000000000000000000000000000000000000600052602160045260246000fd5b0217905550600160009054906101000a900473ffffffffffffffffffffffffffffffffffffffff1673ffffffffffffffffffffffffffffffffffffffff166108fc6000546003610c229190611726565b9081150290604051600060405180830381858888f19350505050158015610c4d573d6000803e3d6000fd5b506003600260009054906101000a900473ffffffffffffffffffffffffffffffffffffffff169080600181540180825580915050600190039060005260206000200160009091909190916101000a81548173ffffffffffffffffffffffffffffffffffffffff021916908373ffffffffffffffffffffffffffffffffffffffff1602179055507f3273c35ae429700d7ddfd8e47f99c0686bb32ef7c31f00fe6eb66b690c952e4942604051610d029190611698565b60405180910390a150565b600160009054906101000a900473ffffffffffffffffffffffffffffffffffffffff1673ffffffffffffffffffffffffffffffffffffffff163373ffffffffffffffffffffffffffffffffffffffff161415610d9e576040517f08c379a0000000000000000000000000000000000000000000000000000000008152600401610d9590611658565b60405180910390fd5b6000806004811115610dd9577f4e487b7100000000000000000000000000000000000000000000000000000000600052602160045260246000fd5b600460009054906101000a900460ff166004811115610e21577f4e487b7100000000000000000000000000000000000000000000000000000000600052602160045260246000fd5b14610e61576040517f08c379a0000000000000000000000000000000000000000000000000000000008152600401610e5890611618565b60405180910390fd5b6000546002610e709190611726565b341480610e7c57600080fd5b33600260006101000a81548173ffffffffffffffffffffffffffffffffffffffff021916908373ffffffffffffffffffffffffffffffffffffffff1602179055506001600460006101000a81548160ff02191690836004811115610f09577f4e487b7100000000000000000000000000000000000000000000000000000000600052602160045260246000fd5b02179055507f6df03f50e5eb5f7ec6366825f9ba45fea1a7a29151abb5dcecf204313129bb6142600260009054906101000a900473ffffffffffffffffffffffffffffffffffffffff16604051610f619291906116b3565b60405180910390a15050565b600160009054906101000a900473ffffffffffffffffffffffffffffffffffffffff1673ffffffffffffffffffffffffffffffffffffffff163373ffffffffffffffffffffffffffffffffffffffff1614610ffd576040517f08c379a0000000000000000000000000000000000000000000000000000000008152600401610ff490611638565b60405180910390fd5b6001806004811115611038577f4e487b7100000000000000000000000000000000000000000000000000000000600052602160045260246000fd5b600460009054906101000a900460ff166004811115611080577f4e487b7100000000000000000000000000000000000000000000000000000000600052602160045260246000fd5b146110c0576040517f08c379a00000000000000000000000000000000000000000000000000000000081526004016110b790611618565b60405180910390fd5b6000600460006101000a81548160ff0219169083600481111561110c577f4e487b7100000000000000000000000000000000000000000000000000000000600052602160045260246000fd5b02179055506000600260006101000a81548173ffffffffffffffffffffffffffffffffffffffff021916908373ffffffffffffffffffffffffffffffffffffffff1602179055507fb141fd6cde1ad9b9950bdb10ef50487a6b31c237c16e12df3c1a72e16b29ae7c426040516111829190611698565b60405180910390a150565b600160009054906101000a900473ffffffffffffffffffffffffffffffffffffffff1673ffffffffffffffffffffffffffffffffffffffff163373ffffffffffffffffffffffffffffffffffffffff161461121d576040517f08c379a000000000000000000000000000000000000000000000000000000000815260040161121490611638565b60405180910390fd5b60036004811115611257577f4e487b7100000000000000000000000000000000000000000000000000000000600052602160045260246000fd5b600460009054906101000a900460ff16600481111561129f577f4e487b7100000000000000000000000000000000000000000000000000000000600052602160045260246000fd5b148061132957506004808111156112df577f4e487b7100000000000000000000000000000000000000000000000000000000600052602160045260246000fd5b600460009054906101000a900460ff166004811115611327577f4e487b7100000000000000000000000000000000000000000000000000000000600052602160045260246000fd5b145b156113a0577f2c03d2f09622b67ee91478a7e43219c7ced47eff3a3f8bda2eef920181e867664260405161135d9190611698565b60405180910390a1600160009054906101000a900473ffffffffffffffffffffffffffffffffffffffff1673ffffffffffffffffffffffffffffffffffffffff16ff5b565b6060600380548060200260200160405190810160405280929190818152602001828054801561142657602002820191906000526020600020905b8160009054906101000a900473ffffffffffffffffffffffffffffffffffffffff1673ffffffffffffffffffffffffffffffffffffffff16815260200190600101908083116113dc575b5050505050905090565b600061143c8383611466565b60208301905092915050565b611451816117e1565b82525050565b61146081611792565b82525050565b61146f81611780565b82525050565b6000611480826116ec565b61148a8185611704565b9350611495836116dc565b8060005b838110156114c65781516114ad8882611430565b97506114b8836116f7565b925050600181019050611499565b5085935050505092915050565b6114dc816117f3565b82525050565b60006114ef601983611715565b91506114fa82611887565b602082019050919050565b6000611512600e83611715565b915061151d826118b0565b602082019050919050565b6000611535601a83611715565b9150611540826118d9565b602082019050919050565b6000611558601b83611715565b915061156382611902565b602082019050919050565b600061157b603383611715565b91506115868261192b565b604082019050919050565b61159a816117d7565b82525050565b60006020820190506115b56000830184611457565b92915050565b600060208201905081810360008301526115d58184611475565b905092915050565b60006020820190506115f260008301846114d3565b92915050565b60006020820190508181036000830152611611816114e2565b9050919050565b6000602082019050818103600083015261163181611505565b9050919050565b6000602082019050818103600083015261165181611528565b9050919050565b600060208201905081810360008301526116718161154b565b9050919050565b600060208201905081810360008301526116918161156e565b9050919050565b60006020820190506116ad6000830184611591565b92915050565b60006040820190506116c86000830185611591565b6116d56020830184611448565b9392505050565b6000819050602082019050919050565b600081519050919050565b6000602082019050919050565b600082825260208201905092915050565b600082825260208201905092915050565b6000611731826117d7565b915061173c836117d7565b9250817fffffffffffffffffffffffffffffffffffffffffffffffffffffffffffffffff048311821515161561177557611774611829565b5b828202905092915050565b600061178b826117b7565b9050919050565b600061179d826117b7565b9050919050565b60008190506117b28261197a565b919050565b600073ffffffffffffffffffffffffffffffffffffffff82169050919050565b6000819050919050565b60006117ec82611805565b9050919050565b60006117fe826117a4565b9050919050565b600061181082611817565b9050919050565b6000611822826117b7565b9050919050565b7f4e487b7100000000000000000000000000000000000000000000000000000000600052601160045260246000fd5b7f4e487b7100000000000000000000000000000000000000000000000000000000600052602160045260246000fd5b7f4f6e6c792062757965722063616e2063616c6c20746869732e00000000000000600082015250565b7f496e76616c69642073746174652e000000000000000000000000000000000000600082015250565b7f4f6e6c792073656c6c65722063616e2063616c6c20746869732e000000000000600082015250565b7f53656c6c65722073686f756c646e27742063616c6c20746869732e0000000000600082015250565b7f56616c75652068617320746f20626520657175616c20746f207768617420737460008201527f61727465642074686520636f6e74726163742e00000000000000000000000000602082015250565b6005811061198b5761198a611858565b5b5056fea2646970667358221220fafc75246e42d3465c5566cc37287b1cca6ebb46fb9118971976cb7678c9c51764736f6c63430008040033",
  "linkReferences": {},
  "deployedLinkReferences": {}
}